{
    "abi": [
        {
            "inputs": [
                {
                    "internalType": "string",
                    "name": "name_",
                    "type": "string"
                },
                {
                    "internalType": "string",
                    "name": "symbol_",
                    "type": "string"
                },
                {
                    "internalType": "uint256",
                    "name": "decimals_",
                    "type": "uint256"
                }
            ],
            "stateMutability": "nonpayable",
            "type": "constructor"
        },
        {
            "inputs": [],
            "name": "AlreadyClaimed",
            "type": "error"
        },
        {
            "inputs": [
                {
                    "internalType": "uint256",
                    "name": "allowance",
                    "type": "uint256"
                },
                {
                    "internalType": "uint256",
                    "name": "balance",
                    "type": "uint256"
                }
            ],
            "name": "InsufficientAllowance",
            "type": "error"
        },
        {
            "inputs": [
                {
                    "internalType": "uint256",
                    "name": "balance",
                    "type": "uint256"
                },
                {
                    "internalType": "uint256",
                    "name": "transferAmount",
                    "type": "uint256"
                }
            ],
            "name": "InsufficientBalance",
            "type": "error"
        },
        {
            "inputs": [],
            "name": "NullAddress",
            "type": "error"
        },
        {
            "anonymous": false,
            "inputs": [
                {
                    "indexed": true,
                    "internalType": "address",
                    "name": "owner",
                    "type": "address"
                },
                {
                    "indexed": true,
                    "internalType": "address",
                    "name": "spender",
                    "type": "address"
                },
                {
                    "indexed": false,
                    "internalType": "uint256",
                    "name": "value",
                    "type": "uint256"
                }
            ],
            "name": "Approval",
            "type": "event"
        },
        {
            "anonymous": false,
            "inputs": [
                {
                    "indexed": true,
                    "internalType": "address",
                    "name": "from",
                    "type": "address"
                },
                {
                    "indexed": true,
                    "internalType": "address",
                    "name": "to",
                    "type": "address"
                },
                {
                    "indexed": false,
                    "internalType": "uint256",
                    "name": "value",
                    "type": "uint256"
                }
            ],
            "name": "Transfer",
            "type": "event"
        },
        {
            "inputs": [
                {
                    "internalType": "address",
                    "name": "owner",
                    "type": "address"
                },
                {
                    "internalType": "address",
                    "name": "spender",
                    "type": "address"
                }
            ],
            "name": "allowance",
            "outputs": [
                {
                    "internalType": "uint256",
                    "name": "",
                    "type": "uint256"
                }
            ],
            "stateMutability": "view",
            "type": "function"
        },
        {
            "inputs": [
                {
                    "internalType": "address",
                    "name": "spender",
                    "type": "address"
                },
                {
                    "internalType": "uint256",
                    "name": "amount",
                    "type": "uint256"
                }
            ],
            "name": "approve",
            "outputs": [
                {
                    "internalType": "bool",
                    "name": "",
                    "type": "bool"
                }
            ],
            "stateMutability": "nonpayable",
            "type": "function"
        },
        {
            "inputs": [
                {
                    "internalType": "address",
                    "name": "account",
                    "type": "address"
                }
            ],
            "name": "balanceOf",
            "outputs": [
                {
                    "internalType": "uint256",
                    "name": "",
                    "type": "uint256"
                }
            ],
            "stateMutability": "view",
            "type": "function"
        },
        {
            "inputs": [],
            "name": "claim",
            "outputs": [],
            "stateMutability": "nonpayable",
            "type": "function"
        },
        {
            "inputs": [],
            "name": "decimals",
            "outputs": [
                {
                    "internalType": "uint256",
                    "name": "",
                    "type": "uint256"
                }
            ],
            "stateMutability": "view",
            "type": "function"
        },
        {
            "inputs": [],
            "name": "getOwner",
            "outputs": [
                {
                    "internalType": "address",
                    "name": "",
                    "type": "address"
                }
            ],
            "stateMutability": "view",
            "type": "function"
        },
        {
            "inputs": [
                {
                    "internalType": "address",
                    "name": "user",
                    "type": "address"
                }
            ],
            "name": "isClaimedAlready",
            "outputs": [
                {
                    "internalType": "bool",
                    "name": "",
                    "type": "bool"
                }
            ],
            "stateMutability": "view",
            "type": "function"
        },
        {
            "inputs": [],
            "name": "name",
            "outputs": [
                {
                    "internalType": "string",
                    "name": "",
                    "type": "string"
                }
            ],
            "stateMutability": "view",
            "type": "function"
        },
        {
            "inputs": [
                {
                    "internalType": "address[]",
                    "name": "input",
                    "type": "address[]"
                },
                {
                    "internalType": "uint256",
                    "name": "amount",
                    "type": "uint256"
                }
            ],
            "name": "sendToMutiUsers",
            "outputs": [],
            "stateMutability": "nonpayable",
            "type": "function"
        },
        {
            "inputs": [],
            "name": "symbol",
            "outputs": [
                {
                    "internalType": "string",
                    "name": "",
                    "type": "string"
                }
            ],
            "stateMutability": "view",
            "type": "function"
        },
        {
            "inputs": [],
            "name": "totalSupply",
            "outputs": [
                {
                    "internalType": "uint256",
                    "name": "",
                    "type": "uint256"
                }
            ],
            "stateMutability": "pure",
            "type": "function"
        },
        {
            "inputs": [
                {
                    "internalType": "address",
                    "name": "recipient",
                    "type": "address"
                },
                {
                    "internalType": "uint256",
                    "name": "amount",
                    "type": "uint256"
                }
            ],
            "name": "transfer",
            "outputs": [
                {
                    "internalType": "bool",
                    "name": "",
                    "type": "bool"
                }
            ],
            "stateMutability": "nonpayable",
            "type": "function"
        },
        {
            "inputs": [
                {
                    "internalType": "address",
                    "name": "sender",
                    "type": "address"
                },
                {
                    "internalType": "address",
                    "name": "recipient",
                    "type": "address"
                },
                {
                    "internalType": "uint256",
                    "name": "amount",
                    "type": "uint256"
                }
            ],
            "name": "transferFrom",
            "outputs": [
                {
                    "internalType": "bool",
                    "name": "",
                    "type": "bool"
                }
            ],
            "stateMutability": "nonpayable",
            "type": "function"
        },
        {
            "inputs": [
                {
                    "internalType": "uint256",
                    "name": "amount",
                    "type": "uint256"
                }
            ],
            "name": "withdraw",
            "outputs": [],
            "stateMutability": "nonpayable",
            "type": "function"
        }
    ],
    "bytecode": {
        "object": "0x60a06040523480156200001157600080fd5b5060405162000dcc38038062000dcc8339810160408190526200003491620001f1565b6002620000428482620002f3565b506003620000518382620002f3565b50600480546001600160a01b0319163317905560808190526200007d600266038d7ea4c68000620003bf565b33600090815260208190526040902055620000a1600266038d7ea4c68000620003bf565b30600090815260208190526040812091909155339060008051602062000dac833981519152620000da600266038d7ea4c68000620003bf565b60405190815260200160405180910390a330600060008051602062000dac83398151915262000112600266038d7ea4c68000620003bf565b60405190815260200160405180910390a3505050620003e2565b634e487b7160e01b600052604160045260246000fd5b600082601f8301126200015457600080fd5b81516001600160401b03808211156200017157620001716200012c565b604051601f8301601f19908116603f011681019082821181831017156200019c576200019c6200012c565b81604052838152602092508683858801011115620001b957600080fd5b600091505b83821015620001dd5785820183015181830184015290820190620001be565b600093810190920192909252949350505050565b6000806000606084860312156200020757600080fd5b83516001600160401b03808211156200021f57600080fd5b6200022d8783880162000142565b945060208601519150808211156200024457600080fd5b50620002538682870162000142565b925050604084015190509250925092565b600181811c908216806200027957607f821691505b6020821081036200029a57634e487b7160e01b600052602260045260246000fd5b50919050565b601f821115620002ee57600081815260208120601f850160051c81016020861015620002c95750805b601f850160051c820191505b81811015620002ea57828155600101620002d5565b5050505b505050565b81516001600160401b038111156200030f576200030f6200012c565b620003278162000320845462000264565b84620002a0565b602080601f8311600181146200035f5760008415620003465750858301515b600019600386901b1c1916600185901b178555620002ea565b600085815260208120601f198616915b8281101562000390578886015182559484019460019091019084016200036f565b5085821015620003af5787850151600019600388901b60f8161c191681555b5050505050600190811b01905550565b600082620003dd57634e487b7160e01b600052601260045260246000fd5b500490565b6080516109ae620003fe600039600061018401526109ae6000f3fe608060405234801561001057600080fd5b50600436106100ea5760003560e01c80634e71d92d1161008c57806395d89b411161006657806395d89b41146101f4578063a9059cbb146101fc578063dd62ed3e1461020f578063e5f737671461024857600080fd5b80634e71d92d146101a857806370a08231146101b0578063893d20e8146101d957600080fd5b806320c098bb116100c857806320c098bb1461014757806323b872dd1461015c5780632e1a7d4d1461016f578063313ce5671461018257600080fd5b806306fdde03146100ef578063095ea7b31461010d57806318160ddd14610130575b600080fd5b6100f7610274565b60405161010491906106b0565b60405180910390f35b61012061011b36600461071a565b610306565b6040519015158152602001610104565b66038d7ea4c680005b604051908152602001610104565b61015a61015536600461075a565b61031d565b005b61012061016a366004610825565b6103cb565b61015a61017d366004610861565b610459565b7f0000000000000000000000000000000000000000000000000000000000000000610139565b61015a61048b565b6101396101be36600461087a565b6001600160a01b031660009081526020819052604090205490565b6004546040516001600160a01b039091168152602001610104565b6100f76104e8565b61012061020a36600461071a565b6104f7565b61013961021d36600461089c565b6001600160a01b03918216600090815260016020908152604080832093909416825291909152205490565b61012061025636600461087a565b6001600160a01b031660009081526005602052604090205460ff1690565b606060028054610283906108cf565b80601f01602080910402602001604051908101604052809291908181526020018280546102af906108cf565b80156102fc5780601f106102d1576101008083540402835291602001916102fc565b820191906000526020600020905b8154815290600101906020018083116102df57829003601f168201915b5050505050905090565b6000610313338484610504565b5060015b92915050565b80825161032a919061091f565b3360009081526020819052604090205410156103845733600090815260208190526040902054825161035d90839061091f565b60405163cf47918160e01b8152600481019290925260248201526044015b60405180910390fd5b60005b82518110156103c6576103b4338483815181106103a6576103a6610936565b6020026020010151846105a0565b806103be8161094c565b915050610387565b505050565b6001600160a01b03831660009081526001602090815260408083203384529091528120548281101561041a5760405163054365bb60e31b8152600481018290526024810184905260440161037b565b6104258585856105a0565b6001600160a01b03851660009081526001602081815260408084203385529091529091209184900390915590509392505050565b6004546001600160a01b0316331461047057600080fd5b6004546104889030906001600160a01b0316836105a0565b50565b3360009081526005602052604090205460ff16156104bc57604051630c8d9eab60e31b815260040160405180910390fd5b336000818152600560205260409020805460ff191660011790556104e69030906305f5e1006105a0565b565b606060038054610283906108cf565b60006103133384846105a0565b6001600160a01b038316158061052157506001600160a01b038216155b1561053f5760405163e99d5ac560e01b815260040160405180910390fd5b6001600160a01b0383811660008181526001602090815260408083209487168084529482529182902085905590518481527f8c5be1e5ebec7d5bd14f71427d1e84f3dd0314c0f7b2291e5b200ac8c7c3b925910160405180910390a3505050565b6001600160a01b03831615806105bd57506001600160a01b038216155b156105db5760405163e99d5ac560e01b815260040160405180910390fd5b6001600160a01b0383166000908152602081905260409020548181101561061f5760405163cf47918160e01b8152600481018290526024810183905260440161037b565b6001600160a01b03808516600090815260208190526040808220858503905591851681529081208054849290610656908490610965565b92505081905550826001600160a01b0316846001600160a01b03167fddf252ad1be2c89b69c2b068fc378daa952ba7f163c4a11628f55a4df523b3ef846040516106a291815260200190565b60405180910390a350505050565b600060208083528351808285015260005b818110156106dd578581018301518582016040015282016106c1565b506000604082860101526040601f19601f8301168501019250505092915050565b80356001600160a01b038116811461071557600080fd5b919050565b6000806040838503121561072d57600080fd5b610736836106fe565b946020939093013593505050565b634e487b7160e01b600052604160045260246000fd5b6000806040838503121561076d57600080fd5b823567ffffffffffffffff8082111561078557600080fd5b818501915085601f83011261079957600080fd5b81356020828211156107ad576107ad610744565b8160051b604051601f19603f830116810181811086821117156107d2576107d2610744565b6040529283528183019350848101820192898411156107f057600080fd5b948201945b8386101561081557610806866106fe565b855294820194938201936107f5565b9997909101359750505050505050565b60008060006060848603121561083a57600080fd5b610843846106fe565b9250610851602085016106fe565b9150604084013590509250925092565b60006020828403121561087357600080fd5b5035919050565b60006020828403121561088c57600080fd5b610895826106fe565b9392505050565b600080604083850312156108af57600080fd5b6108b8836106fe565b91506108c6602084016106fe565b90509250929050565b600181811c908216806108e357607f821691505b60208210810361090357634e487b7160e01b600052602260045260246000fd5b50919050565b634e487b7160e01b600052601160045260246000fd5b808202811582820484141761031757610317610909565b634e487b7160e01b600052603260045260246000fd5b60006001820161095e5761095e610909565b5060010190565b808201808211156103175761031761090956fea2646970667358221220260572d8d57524d1fc1ce0d9ac9c755d562200189ccc9331680adae0b96c4d2764736f6c63430008110033ddf252ad1be2c89b69c2b068fc378daa952ba7f163c4a11628f55a4df523b3ef",
        "linkReferences": {}
    },
    "methodIdentifiers": {
        "allowance(address,address)": "dd62ed3e",
        "approve(address,uint256)": "095ea7b3",
        "balanceOf(address)": "70a08231",
        "claim()": "4e71d92d",
        "decimals()": "313ce567",
        "getOwner()": "893d20e8",
        "isClaimedAlready(address)": "e5f73767",
        "name()": "06fdde03",
        "sendToMutiUsers(address[],uint256)": "20c098bb",
        "symbol()": "95d89b41",
        "totalSupply()": "18160ddd",
        "transfer(address,uint256)": "a9059cbb",
        "transferFrom(address,address,uint256)": "23b872dd",
        "withdraw(uint256)": "2e1a7d4d"
    },
    "id": 58
}