{
  "_format": "hh-sol-artifact-1",
  "contractName": "InVaria",
  "sourceName": "contracts/InVaria1155.sol",
  "abi": [
    {
      "inputs": [
        {
          "internalType": "string",
          "name": "_baseURI",
          "type": "string"
        }
      ],
      "stateMutability": "nonpayable",
      "type": "constructor"
    },
    {
      "anonymous": false,
      "inputs": [
        {
          "indexed": true,
          "internalType": "address",
          "name": "account",
          "type": "address"
        },
        {
          "indexed": true,
          "internalType": "address",
          "name": "operator",
          "type": "address"
        },
        {
          "indexed": false,
          "internalType": "bool",
          "name": "approved",
          "type": "bool"
        }
      ],
      "name": "ApprovalForAll",
      "type": "event"
    },
    {
      "anonymous": false,
      "inputs": [
        {
          "indexed": true,
          "internalType": "address",
          "name": "previousOwner",
          "type": "address"
        },
        {
          "indexed": true,
          "internalType": "address",
          "name": "newOwner",
          "type": "address"
        }
      ],
      "name": "OwnershipTransferred",
      "type": "event"
    },
    {
      "anonymous": false,
      "inputs": [
        {
          "indexed": true,
          "internalType": "string",
          "name": "_baseURI",
          "type": "string"
        }
      ],
      "name": "SetBaseURI",
      "type": "event"
    },
    {
      "anonymous": false,
      "inputs": [
        {
          "indexed": true,
          "internalType": "address",
          "name": "operator",
          "type": "address"
        },
        {
          "indexed": true,
          "internalType": "address",
          "name": "from",
          "type": "address"
        },
        {
          "indexed": true,
          "internalType": "address",
          "name": "to",
          "type": "address"
        },
        {
          "indexed": false,
          "internalType": "uint256[]",
          "name": "ids",
          "type": "uint256[]"
        },
        {
          "indexed": false,
          "internalType": "uint256[]",
          "name": "values",
          "type": "uint256[]"
        }
      ],
      "name": "TransferBatch",
      "type": "event"
    },
    {
      "anonymous": false,
      "inputs": [
        {
          "indexed": true,
          "internalType": "address",
          "name": "operator",
          "type": "address"
        },
        {
          "indexed": true,
          "internalType": "address",
          "name": "from",
          "type": "address"
        },
        {
          "indexed": true,
          "internalType": "address",
          "name": "to",
          "type": "address"
        },
        {
          "indexed": false,
          "internalType": "uint256",
          "name": "id",
          "type": "uint256"
        },
        {
          "indexed": false,
          "internalType": "uint256",
          "name": "value",
          "type": "uint256"
        }
      ],
      "name": "TransferSingle",
      "type": "event"
    },
    {
      "anonymous": false,
      "inputs": [
        {
          "indexed": false,
          "internalType": "string",
          "name": "value",
          "type": "string"
        },
        {
          "indexed": true,
          "internalType": "uint256",
          "name": "id",
          "type": "uint256"
        }
      ],
      "name": "URI",
      "type": "event"
    },
    {
      "inputs": [
        {
          "internalType": "address[]",
          "name": "input",
          "type": "address[]"
        },
        {
          "internalType": "bool",
          "name": "bo",
          "type": "bool"
        }
      ],
      "name": "AddWhite",
      "outputs": [],
      "stateMutability": "nonpayable",
      "type": "function"
    },
    {
      "inputs": [
        {
          "internalType": "address",
          "name": "burnTokenAddress",
          "type": "address"
        },
        {
          "internalType": "uint256",
          "name": "burnValue",
          "type": "uint256"
        }
      ],
      "name": "BurnInVariaNFT",
      "outputs": [],
      "stateMutability": "nonpayable",
      "type": "function"
    },
    {
      "inputs": [
        {
          "internalType": "uint256",
          "name": "price",
          "type": "uint256"
        }
      ],
      "name": "ChangeSalePrice",
      "outputs": [],
      "stateMutability": "nonpayable",
      "type": "function"
    },
    {
      "inputs": [
        {
          "internalType": "address",
          "name": "account",
          "type": "address"
        }
      ],
      "name": "CheckPreSaleBuyer",
      "outputs": [
        {
          "internalType": "bool",
          "name": "",
          "type": "bool"
        }
      ],
      "stateMutability": "view",
      "type": "function"
    },
    {
      "inputs": [
        {
          "internalType": "uint256",
          "name": "",
          "type": "uint256"
        }
      ],
      "name": "InVariaType",
      "outputs": [
        {
          "internalType": "bool",
          "name": "",
          "type": "bool"
        }
      ],
      "stateMutability": "view",
      "type": "function"
    },
    {
      "inputs": [
        {
          "internalType": "uint256",
          "name": "amounts",
          "type": "uint256"
        }
      ],
      "name": "PublicMintNFT",
      "outputs": [],
      "stateMutability": "nonpayable",
      "type": "function"
    },
    {
      "inputs": [],
      "name": "PublicSale",
      "outputs": [
        {
          "internalType": "bool",
          "name": "",
          "type": "bool"
        }
      ],
      "stateMutability": "view",
      "type": "function"
    },
    {
      "inputs": [],
      "name": "SaleSupply",
      "outputs": [
        {
          "internalType": "uint256",
          "name": "",
          "type": "uint256"
        }
      ],
      "stateMutability": "view",
      "type": "function"
    },
    {
      "inputs": [],
      "name": "SellingPrice",
      "outputs": [
        {
          "internalType": "uint256",
          "name": "",
          "type": "uint256"
        }
      ],
      "stateMutability": "view",
      "type": "function"
    },
    {
      "inputs": [],
      "name": "Sold",
      "outputs": [
        {
          "internalType": "uint256",
          "name": "",
          "type": "uint256"
        }
      ],
      "stateMutability": "view",
      "type": "function"
    },
    {
      "inputs": [],
      "name": "USDC",
      "outputs": [
        {
          "internalType": "contract IERC20",
          "name": "",
          "type": "address"
        }
      ],
      "stateMutability": "view",
      "type": "function"
    },
    {
      "inputs": [
        {
          "internalType": "address",
          "name": "",
          "type": "address"
        }
      ],
      "name": "WhiteList",
      "outputs": [
        {
          "internalType": "bool",
          "name": "",
          "type": "bool"
        }
      ],
      "stateMutability": "view",
      "type": "function"
    },
    {
      "inputs": [],
      "name": "WithDrawAddress",
      "outputs": [
        {
          "internalType": "address",
          "name": "",
          "type": "address"
        }
      ],
      "stateMutability": "view",
      "type": "function"
    },
    {
      "inputs": [
        {
          "internalType": "address",
          "name": "account",
          "type": "address"
        },
        {
          "internalType": "uint256",
          "name": "id",
          "type": "uint256"
        }
      ],
      "name": "balanceOf",
      "outputs": [
        {
          "internalType": "uint256",
          "name": "",
          "type": "uint256"
        }
      ],
      "stateMutability": "view",
      "type": "function"
    },
    {
      "inputs": [
        {
          "internalType": "address",
          "name": "account",
          "type": "address"
        }
      ],
      "name": "balanceOf",
      "outputs": [
        {
          "internalType": "uint256",
          "name": "",
          "type": "uint256"
        }
      ],
      "stateMutability": "view",
      "type": "function"
    },
    {
      "inputs": [
        {
          "internalType": "address[]",
          "name": "accounts",
          "type": "address[]"
        },
        {
          "internalType": "uint256[]",
          "name": "ids",
          "type": "uint256[]"
        }
      ],
      "name": "balanceOfBatch",
      "outputs": [
        {
          "internalType": "uint256[]",
          "name": "",
          "type": "uint256[]"
        }
      ],
      "stateMutability": "view",
      "type": "function"
    },
    {
      "inputs": [
        {
          "internalType": "address",
          "name": "account",
          "type": "address"
        },
        {
          "internalType": "address",
          "name": "operator",
          "type": "address"
        }
      ],
      "name": "isApprovedForAll",
      "outputs": [
        {
          "internalType": "bool",
          "name": "",
          "type": "bool"
        }
      ],
      "stateMutability": "view",
      "type": "function"
    },
    {
      "inputs": [
        {
          "internalType": "uint256",
          "name": "amounts",
          "type": "uint256"
        }
      ],
      "name": "mintNFT",
      "outputs": [],
      "stateMutability": "nonpayable",
      "type": "function"
    },
    {
      "inputs": [],
      "name": "name",
      "outputs": [
        {
          "internalType": "string",
          "name": "",
          "type": "string"
        }
      ],
      "stateMutability": "view",
      "type": "function"
    },
    {
      "inputs": [],
      "name": "onwerMint",
      "outputs": [],
      "stateMutability": "nonpayable",
      "type": "function"
    },
    {
      "inputs": [],
      "name": "owner",
      "outputs": [
        {
          "internalType": "address",
          "name": "",
          "type": "address"
        }
      ],
      "stateMutability": "view",
      "type": "function"
    },
    {
      "inputs": [
        {
          "internalType": "bool",
          "name": "set",
          "type": "bool"
        }
      ],
      "name": "publicSaleStart",
      "outputs": [],
      "stateMutability": "nonpayable",
      "type": "function"
    },
    {
      "inputs": [],
      "name": "renounceOwnership",
      "outputs": [],
      "stateMutability": "nonpayable",
      "type": "function"
    },
    {
      "inputs": [
        {
          "internalType": "address",
          "name": "from",
          "type": "address"
        },
        {
          "internalType": "address",
          "name": "to",
          "type": "address"
        },
        {
          "internalType": "uint256[]",
          "name": "ids",
          "type": "uint256[]"
        },
        {
          "internalType": "uint256[]",
          "name": "amounts",
          "type": "uint256[]"
        },
        {
          "internalType": "bytes",
          "name": "data",
          "type": "bytes"
        }
      ],
      "name": "safeBatchTransferFrom",
      "outputs": [],
      "stateMutability": "nonpayable",
      "type": "function"
    },
    {
      "inputs": [
        {
          "internalType": "address",
          "name": "from",
          "type": "address"
        },
        {
          "internalType": "address",
          "name": "to",
          "type": "address"
        },
        {
          "internalType": "uint256",
          "name": "id",
          "type": "uint256"
        },
        {
          "internalType": "uint256",
          "name": "amount",
          "type": "uint256"
        },
        {
          "internalType": "bytes",
          "name": "data",
          "type": "bytes"
        }
      ],
      "name": "safeTransferFrom",
      "outputs": [],
      "stateMutability": "nonpayable",
      "type": "function"
    },
    {
      "inputs": [
        {
          "internalType": "address",
          "name": "operator",
          "type": "address"
        },
        {
          "internalType": "bool",
          "name": "approved",
          "type": "bool"
        }
      ],
      "name": "setApprovalForAll",
      "outputs": [],
      "stateMutability": "nonpayable",
      "type": "function"
    },
    {
      "inputs": [
        {
          "internalType": "address",
          "name": "addr",
          "type": "address"
        }
      ],
      "name": "setStakingAddress",
      "outputs": [],
      "stateMutability": "nonpayable",
      "type": "function"
    },
    {
      "inputs": [
        {
          "internalType": "uint256",
          "name": "supply",
          "type": "uint256"
        }
      ],
      "name": "setSupply",
      "outputs": [],
      "stateMutability": "nonpayable",
      "type": "function"
    },
    {
      "inputs": [
        {
          "internalType": "uint256",
          "name": "types",
          "type": "uint256"
        }
      ],
      "name": "setType",
      "outputs": [],
      "stateMutability": "nonpayable",
      "type": "function"
    },
    {
      "inputs": [
        {
          "internalType": "address",
          "name": "token",
          "type": "address"
        }
      ],
      "name": "setUSDCaddress",
      "outputs": [],
      "stateMutability": "nonpayable",
      "type": "function"
    },
    {
      "inputs": [
        {
          "internalType": "bytes4",
          "name": "interfaceId",
          "type": "bytes4"
        }
      ],
      "name": "supportsInterface",
      "outputs": [
        {
          "internalType": "bool",
          "name": "",
          "type": "bool"
        }
      ],
      "stateMutability": "view",
      "type": "function"
    },
    {
      "inputs": [],
      "name": "symbol",
      "outputs": [
        {
          "internalType": "string",
          "name": "",
          "type": "string"
        }
      ],
      "stateMutability": "view",
      "type": "function"
    },
    {
      "inputs": [],
      "name": "totalSupply",
      "outputs": [
        {
          "internalType": "uint256",
          "name": "",
          "type": "uint256"
        }
      ],
      "stateMutability": "view",
      "type": "function"
    },
    {
      "inputs": [
        {
          "internalType": "address",
          "name": "newOwner",
          "type": "address"
        }
      ],
      "name": "transferOwnership",
      "outputs": [],
      "stateMutability": "nonpayable",
      "type": "function"
    },
    {
      "inputs": [
        {
          "internalType": "string",
          "name": "_baseURI",
          "type": "string"
        }
      ],
      "name": "updateBaseUri",
      "outputs": [],
      "stateMutability": "nonpayable",
      "type": "function"
    },
    {
      "inputs": [
        {
          "internalType": "uint256",
          "name": "typeId",
          "type": "uint256"
        }
      ],
      "name": "uri",
      "outputs": [
        {
          "internalType": "string",
          "name": "",
          "type": "string"
        }
      ],
      "stateMutability": "view",
      "type": "function"
    }
  ],
  "bytecode": "0x60806040526107d060065560646007556402540be4006008556040518060400160405280600c81526020017f496e566172696120323232320000000000000000000000000000000000000000815250600d90816200005e919062000649565b506040518060400160405280600781526020017f496e566172696100000000000000000000000000000000000000000000000000815250600e9081620000a5919062000649565b506000600f60006101000a81548160ff02191690831515021790555073368b00e81f284a856494806fb8c3505f02254dc0600f60016101000a81548173ffffffffffffffffffffffffffffffffffffffff021916908373ffffffffffffffffffffffffffffffffffffffff160217905550732369b8b01d0ac861027db6d53641856ffaef3c6c601060006101000a81548173ffffffffffffffffffffffffffffffffffffffff021916908373ffffffffffffffffffffffffffffffffffffffff1602179055503480156200017857600080fd5b50604051620058623803806200586283398181016040528101906200019e91906200089e565b80620001b081620002ec60201b60201c565b50620001d1620001c56200030160201b60201c565b6200030960201b60201c565b600f60019054906101000a900473ffffffffffffffffffffffffffffffffffffffff16600460006101000a81548173ffffffffffffffffffffffffffffffffffffffff021916908373ffffffffffffffffffffffffffffffffffffffff160217905550806005908162000245919062000649565b506001600a60006001815260200190815260200160002060006101000a81548160ff0219169083151502179055506001600a60006002815260200190815260200160002060006101000a81548160ff0219169083151502179055506005604051620002b1919062000989565b60405180910390207f23c8c9488efebfd474e85a7956de6f39b17c7ab88502d42a623db2d8e382bbaa60405160405180910390a250620009a2565b8060029081620002fd919062000649565b5050565b600033905090565b6000600360009054906101000a900473ffffffffffffffffffffffffffffffffffffffff16905081600360006101000a81548173ffffffffffffffffffffffffffffffffffffffff021916908373ffffffffffffffffffffffffffffffffffffffff1602179055508173ffffffffffffffffffffffffffffffffffffffff168173ffffffffffffffffffffffffffffffffffffffff167f8be0079c531659141344cd1fd0a4f28419497f9722a3daafe3b4186f6b6457e060405160405180910390a35050565b600081519050919050565b7f4e487b7100000000000000000000000000000000000000000000000000000000600052604160045260246000fd5b7f4e487b7100000000000000000000000000000000000000000000000000000000600052602260045260246000fd5b600060028204905060018216806200045157607f821691505b60208210810362000467576200046662000409565b5b50919050565b60008190508160005260206000209050919050565b60006020601f8301049050919050565b600082821b905092915050565b600060088302620004d17fffffffffffffffffffffffffffffffffffffffffffffffffffffffffffffffff8262000492565b620004dd868362000492565b95508019841693508086168417925050509392505050565b6000819050919050565b6000819050919050565b60006200052a620005246200051e84620004f5565b620004ff565b620004f5565b9050919050565b6000819050919050565b620005468362000509565b6200055e620005558262000531565b8484546200049f565b825550505050565b600090565b6200057562000566565b620005828184846200053b565b505050565b5b81811015620005aa576200059e6000826200056b565b60018101905062000588565b5050565b601f821115620005f957620005c3816200046d565b620005ce8462000482565b81016020851015620005de578190505b620005f6620005ed8562000482565b83018262000587565b50505b505050565b600082821c905092915050565b60006200061e60001984600802620005fe565b1980831691505092915050565b60006200063983836200060b565b9150826002028217905092915050565b6200065482620003cf565b67ffffffffffffffff81111562000670576200066f620003da565b5b6200067c825462000438565b62000689828285620005ae565b600060209050601f831160018114620006c15760008415620006ac578287015190505b620006b885826200062b565b86555062000728565b601f198416620006d1866200046d565b60005b82811015620006fb57848901518255600182019150602085019450602081019050620006d4565b868310156200071b578489015162000717601f8916826200060b565b8355505b6001600288020188555050505b505050505050565b6000604051905090565b600080fd5b600080fd5b600080fd5b600080fd5b6000601f19601f8301169050919050565b6200076a826200074e565b810181811067ffffffffffffffff821117156200078c576200078b620003da565b5b80604052505050565b6000620007a162000730565b9050620007af82826200075f565b919050565b600067ffffffffffffffff821115620007d257620007d1620003da565b5b620007dd826200074e565b9050602081019050919050565b60005b838110156200080a578082015181840152602081019050620007ed565b838111156200081a576000848401525b50505050565b6000620008376200083184620007b4565b62000795565b90508281526020810184848401111562000856576200085562000749565b5b62000863848285620007ea565b509392505050565b600082601f83011262000883576200088262000744565b5b81516200089584826020860162000820565b91505092915050565b600060208284031215620008b757620008b66200073a565b5b600082015167ffffffffffffffff811115620008d857620008d76200073f565b5b620008e6848285016200086b565b91505092915050565b600081905092915050565b60008154620009098162000438565b620009158186620008ef565b94506001821660008114620009335760018114620009495762000980565b60ff198316865281151582028601935062000980565b62000954856200046d565b60005b83811015620009785781548189015260018201915060208101905062000957565b838801955050505b50505092915050565b6000620009978284620008fa565b915081905092915050565b614eb080620009b26000396000f3fe608060405234801561001057600080fd5b506004361061021b5760003560e01c8063715018a611610125578063e985e9c5116100ad578063f2fde38b1161007c578063f2fde38b14610626578063f4e0d9ac14610642578063f92963bd1461065e578063fc957be514610668578063fceee069146106985761021b565b8063e985e9c5146105a0578063ea836047146105d0578063ebe20653146105ec578063f242432a1461060a5761021b565b806395d89b41116100f457806395d89b411461051057806396a9eecd1461052e578063a22cb4651461054a578063a813dea614610566578063e04a8c08146105825761021b565b8063715018a6146104ae57806389a30271146104b85780638da5cb5b146104d657806392642744146104f45761021b565b80632c602f43116101a85780633b4c4b25116101775780633b4c4b25146103e6578063408b0562146104025780634e1273f41461041e5780636bc201571461044e57806370a082311461047e5761021b565b80632c602f43146103605780632eb2c2d6146103905780632fd3172d146103ac57806339f7e37f146103ca5761021b565b80630f2db801116101ef5780630f2db801146102ce5780630f59c6eb146102ec57806310f05df31461030a578063157734ff1461032657806318160ddd146103425761021b565b8062fdd58e1461022057806301ffc9a71461025057806306fdde03146102805780630e89341c1461029e575b600080fd5b61023a60048036038101906102359190612f18565b6106b4565b6040516102479190612f67565b60405180910390f35b61026a60048036038101906102659190612fda565b61077c565b6040516102779190613022565b60405180910390f35b61028861085e565b60405161029591906130d6565b60405180910390f35b6102b860048036038101906102b391906130f8565b6108f0565b6040516102c591906130d6565b60405180910390f35b6102d6610a2b565b6040516102e39190612f67565b60405180910390f35b6102f4610a35565b6040516103019190613022565b60405180910390f35b610324600480360381019061031f91906130f8565b610a48565b005b610340600480360381019061033b91906130f8565b610a68565b005b61034a610e49565b6040516103579190612f67565b60405180910390f35b61037a600480360381019061037591906130f8565b610e53565b6040516103879190613022565b60405180910390f35b6103aa60048036038101906103a59190613322565b610e73565b005b6103b4610f14565b6040516103c19190612f67565b60405180910390f35b6103e460048036038101906103df9190613492565b610f1a565b005b61040060048036038101906103fb91906130f8565b610f78565b005b61041c60048036038101906104179190613507565b610f8a565b005b610438600480360381019061043391906135f7565b610faf565b604051610445919061372d565b60405180910390f35b6104686004803603810190610463919061374f565b6110c8565b6040516104759190613022565b60405180910390f35b6104986004803603810190610493919061374f565b6110e8565b6040516104a59190612f67565b60405180910390f35b6104b66110fc565b005b6104c0611110565b6040516104cd91906137db565b60405180910390f35b6104de611136565b6040516104eb9190613805565b60405180910390f35b61050e600480360381019061050991906130f8565b611160565b005b61051861160d565b60405161052591906130d6565b60405180910390f35b6105486004803603810190610543919061374f565b61169f565b005b610564600480360381019061055f9190613820565b6116eb565b005b610580600480360381019061057b91906130f8565b611701565b005b61058a611738565b6040516105979190612f67565b60405180910390f35b6105ba60048036038101906105b59190613860565b61173e565b6040516105c79190613022565b60405180910390f35b6105ea60048036038101906105e591906138a0565b6117d2565b005b6105f461186f565b6040516106019190613805565b60405180910390f35b610624600480360381019061061f91906138fc565b611895565b005b610640600480360381019061063b919061374f565b61198c565b005b61065c6004803603810190610657919061374f565b611a0f565b005b610666611a5b565b005b610682600480360381019061067d919061374f565b611a82565b60405161068f9190613022565b60405180910390f35b6106b260048036038101906106ad9190612f18565b611ad8565b005b60008073ffffffffffffffffffffffffffffffffffffffff168373ffffffffffffffffffffffffffffffffffffffff1603610724576040517f08c379a000000000000000000000000000000000000000000000000000000000815260040161071b90613a05565b60405180910390fd5b60008083815260200190815260200160002060008473ffffffffffffffffffffffffffffffffffffffff1673ffffffffffffffffffffffffffffffffffffffff16815260200190815260200160002054905092915050565b60007fd9b67a26000000000000000000000000000000000000000000000000000000007bffffffffffffffffffffffffffffffffffffffffffffffffffffffff1916827bffffffffffffffffffffffffffffffffffffffffffffffffffffffff1916148061084757507f0e89341c000000000000000000000000000000000000000000000000000000007bffffffffffffffffffffffffffffffffffffffffffffffffffffffff1916827bffffffffffffffffffffffffffffffffffffffffffffffffffffffff1916145b80610857575061085682611be1565b5b9050919050565b6060600d805461086d90613a54565b80601f016020809104026020016040519081016040528092919081815260200182805461089990613a54565b80156108e65780601f106108bb576101008083540402835291602001916108e6565b820191906000526020600020905b8154815290600101906020018083116108c957829003601f168201915b5050505050905090565b6060600a600083815260200190815260200160002060009054906101000a900460ff16610952576040517f08c379a000000000000000000000000000000000000000000000000000000000815260040161094990613ad1565b60405180910390fd5b60006005805461096190613a54565b9050116109f8576005805461097590613a54565b80601f01602080910402602001604051908101604052809291908181526020018280546109a190613a54565b80156109ee5780601f106109c3576101008083540402835291602001916109ee565b820191906000526020600020905b8154815290600101906020018083116109d157829003601f168201915b5050505050610a24565b6005610a0383611c4b565b604051602001610a14929190613bc5565b6040516020818303038152906040525b9050919050565b6000600754905090565b600f60009054906101000a900460ff1681565b610a50611dab565b620f424081610a5f9190613c18565b60088190555050565b600f60009054906101000a900460ff168015610a845750600081115b610ac3576040517f08c379a0000000000000000000000000000000000000000000000000000000008152600401610aba90613cbe565b60405180910390fd5b60065481600954610ad49190613cde565b1115610b15576040517f08c379a0000000000000000000000000000000000000000000000000000000008152600401610b0c90613d80565b60405180910390fd5b60075481600954610b269190613cde565b1115610b67576040517f08c379a0000000000000000000000000000000000000000000000000000000008152600401610b5e90613d80565b60405180910390fd5b60085481610b759190613c18565b600460009054906101000a900473ffffffffffffffffffffffffffffffffffffffff1673ffffffffffffffffffffffffffffffffffffffff1663dd62ed3e33306040518363ffffffff1660e01b8152600401610bd2929190613da0565b602060405180830381865afa158015610bef573d6000803e3d6000fd5b505050506040513d601f19601f82011682018060405250810190610c139190613dde565b1015610c54576040517f08c379a0000000000000000000000000000000000000000000000000000000008152600401610c4b90613e57565b60405180910390fd5b60085481610c629190613c18565b600460009054906101000a900473ffffffffffffffffffffffffffffffffffffffff1673ffffffffffffffffffffffffffffffffffffffff166370a08231336040518263ffffffff1660e01b8152600401610cbd9190613805565b602060405180830381865afa158015610cda573d6000803e3d6000fd5b505050506040513d601f19601f82011682018060405250810190610cfe9190613dde565b1015610d3f576040517f08c379a0000000000000000000000000000000000000000000000000000000008152600401610d3690613ec3565b60405180910390fd5b600460009054906101000a900473ffffffffffffffffffffffffffffffffffffffff1673ffffffffffffffffffffffffffffffffffffffff166323b872dd33601060009054906101000a900473ffffffffffffffffffffffffffffffffffffffff1660085485610daf9190613c18565b6040518463ffffffff1660e01b8152600401610dcd93929190613ee3565b6020604051808303816000875af1158015610dec573d6000803e3d6000fd5b505050506040513d601f19601f82011682018060405250810190610e109190613f2f565b508060096000828254610e239190613cde565b92505081905550610e463360018360405180602001604052806000815250611e29565b50565b6000600654905090565b600a6020528060005260406000206000915054906101000a900460ff1681565b610e7b611fd9565b73ffffffffffffffffffffffffffffffffffffffff168573ffffffffffffffffffffffffffffffffffffffff161480610ec15750610ec085610ebb611fd9565b61173e565b5b610f00576040517f08c379a0000000000000000000000000000000000000000000000000000000008152600401610ef790613fce565b60405180910390fd5b610f0d8585858585611fe1565b5050505050565b60085481565b610f22611dab565b8060059081610f31919061417b565b506005604051610f41919061424d565b60405180910390207f23c8c9488efebfd474e85a7956de6f39b17c7ab88502d42a623db2d8e382bbaa60405160405180910390a250565b610f80611dab565b8060078190555050565b610f92611dab565b80600f60006101000a81548160ff02191690831515021790555050565b60608151835114610ff5576040517f08c379a0000000000000000000000000000000000000000000000000000000008152600401610fec906142d6565b60405180910390fd5b6000835167ffffffffffffffff8111156110125761101161312a565b5b6040519080825280602002602001820160405280156110405781602001602082028036833780820191505090505b50905060005b84518110156110bd5761108d858281518110611065576110646142f6565b5b60200260200101518583815181106110805761107f6142f6565b5b60200260200101516106b4565b8282815181106110a05761109f6142f6565b5b602002602001018181525050806110b690614325565b9050611046565b508091505092915050565b600b6020528060005260406000206000915054906101000a900460ff1681565b60006110f58260016106b4565b9050919050565b611104611dab565b61110e6000612302565b565b600460009054906101000a900473ffffffffffffffffffffffffffffffffffffffff1681565b6000600360009054906101000a900473ffffffffffffffffffffffffffffffffffffffff16905090565b600b60003373ffffffffffffffffffffffffffffffffffffffff1673ffffffffffffffffffffffffffffffffffffffff16815260200190815260200160002060009054906101000a900460ff166111ec576040517f08c379a00000000000000000000000000000000000000000000000000000000081526004016111e3906143b9565b60405180910390fd5b6000811161122f576040517f08c379a000000000000000000000000000000000000000000000000000000000815260040161122690614425565b60405180910390fd5b600654816009546112409190613cde565b1115611281576040517f08c379a000000000000000000000000000000000000000000000000000000000815260040161127890613d80565b60405180910390fd5b600754816009546112929190613cde565b11156112d3576040517f08c379a00000000000000000000000000000000000000000000000000000000081526004016112ca90613d80565b60405180910390fd5b600854816112e19190613c18565b600460009054906101000a900473ffffffffffffffffffffffffffffffffffffffff1673ffffffffffffffffffffffffffffffffffffffff1663dd62ed3e33306040518363ffffffff1660e01b815260040161133e929190613da0565b602060405180830381865afa15801561135b573d6000803e3d6000fd5b505050506040513d601f19601f8201168201806040525081019061137f9190613dde565b10156113c0576040517f08c379a00000000000000000000000000000000000000000000000000000000081526004016113b790613e57565b60405180910390fd5b600854816113ce9190613c18565b600460009054906101000a900473ffffffffffffffffffffffffffffffffffffffff1673ffffffffffffffffffffffffffffffffffffffff166370a08231336040518263ffffffff1660e01b81526004016114299190613805565b602060405180830381865afa158015611446573d6000803e3d6000fd5b505050506040513d601f19601f8201168201806040525081019061146a9190613dde565b10156114ab576040517f08c379a00000000000000000000000000000000000000000000000000000000081526004016114a290613ec3565b60405180910390fd5b600460009054906101000a900473ffffffffffffffffffffffffffffffffffffffff1673ffffffffffffffffffffffffffffffffffffffff166323b872dd33601060009054906101000a900473ffffffffffffffffffffffffffffffffffffffff166008548561151b9190613c18565b6040518463ffffffff1660e01b815260040161153993929190613ee3565b6020604051808303816000875af1158015611558573d6000803e3d6000fd5b505050506040513d601f19601f8201168201806040525081019061157c9190613f2f565b506001600c60003373ffffffffffffffffffffffffffffffffffffffff1673ffffffffffffffffffffffffffffffffffffffff16815260200190815260200160002060006101000a81548160ff02191690831515021790555080600960008282546115e79190613cde565b9250508190555061160a3360018360405180602001604052806000815250611e29565b50565b6060600e805461161c90613a54565b80601f016020809104026020016040519081016040528092919081815260200182805461164890613a54565b80156116955780601f1061166a57610100808354040283529160200191611695565b820191906000526020600020905b81548152906001019060200180831161167857829003601f168201915b5050505050905090565b6116a7611dab565b80600460006101000a81548173ffffffffffffffffffffffffffffffffffffffff021916908373ffffffffffffffffffffffffffffffffffffffff16021790555050565b6116fd6116f6611fd9565b83836123c8565b5050565b611709611dab565b6001600a600083815260200190815260200160002060006101000a81548160ff02191690831515021790555050565b60095481565b6000600160008473ffffffffffffffffffffffffffffffffffffffff1673ffffffffffffffffffffffffffffffffffffffff16815260200190815260200160002060008373ffffffffffffffffffffffffffffffffffffffff1673ffffffffffffffffffffffffffffffffffffffff16815260200190815260200160002060009054906101000a900460ff16905092915050565b6117da611dab565b60005b825181101561186a5781600b60008584815181106117fe576117fd6142f6565b5b602002602001015173ffffffffffffffffffffffffffffffffffffffff1673ffffffffffffffffffffffffffffffffffffffff16815260200190815260200160002060006101000a81548160ff021916908315150217905550808061186290614325565b9150506117dd565b505050565b601060009054906101000a900473ffffffffffffffffffffffffffffffffffffffff1681565b601260009054906101000a900473ffffffffffffffffffffffffffffffffffffffff1673ffffffffffffffffffffffffffffffffffffffff168473ffffffffffffffffffffffffffffffffffffffff1614611978576118f2611fd9565b73ffffffffffffffffffffffffffffffffffffffff168573ffffffffffffffffffffffffffffffffffffffff161480611938575061193785611932611fd9565b61173e565b5b611977576040517f08c379a000000000000000000000000000000000000000000000000000000000815260040161196e90613fce565b60405180910390fd5b5b6119858585858585612534565b5050505050565b611994611dab565b600073ffffffffffffffffffffffffffffffffffffffff168173ffffffffffffffffffffffffffffffffffffffff1603611a03576040517f08c379a00000000000000000000000000000000000000000000000000000000081526004016119fa906144b7565b60405180910390fd5b611a0c81612302565b50565b611a17611dab565b80601260006101000a81548173ffffffffffffffffffffffffffffffffffffffff021916908373ffffffffffffffffffffffffffffffffffffffff16021790555050565b611a63611dab565b611a80336001600560405180602001604052806000815250611e29565b565b6000600c60008373ffffffffffffffffffffffffffffffffffffffff1673ffffffffffffffffffffffffffffffffffffffff16815260200190815260200160002060009054906101000a900460ff169050919050565b601260009054906101000a900473ffffffffffffffffffffffffffffffffffffffff1673ffffffffffffffffffffffffffffffffffffffff163373ffffffffffffffffffffffffffffffffffffffff1614611b68576040517f08c379a0000000000000000000000000000000000000000000000000000000008152600401611b5f90614523565b60405180910390fd5b80611b748360016106b4565b1015611bb5576040517f08c379a0000000000000000000000000000000000000000000000000000000008152600401611bac9061458f565b60405180910390fd5b611bc1826001836127cf565b611bdd8260028360405180602001604052806000815250611e29565b5050565b60007f01ffc9a7000000000000000000000000000000000000000000000000000000007bffffffffffffffffffffffffffffffffffffffffffffffffffffffff1916827bffffffffffffffffffffffffffffffffffffffffffffffffffffffff1916149050919050565b606060008203611c92576040518060400160405280600181526020017f30000000000000000000000000000000000000000000000000000000000000008152509050611da6565b600082905060005b60008214611cc4578080611cad90614325565b915050600a82611cbd91906145de565b9150611c9a565b60008167ffffffffffffffff811115611ce057611cdf61312a565b5b6040519080825280601f01601f191660200182016040528015611d125781602001600182028036833780820191505090505b5090505b60008514611d9f57600182611d2b919061460f565b9150600a85611d3a9190614643565b6030611d469190613cde565b60f81b818381518110611d5c57611d5b6142f6565b5b60200101907effffffffffffffffffffffffffffffffffffffffffffffffffffffffffffff1916908160001a905350600a85611d9891906145de565b9450611d16565b8093505050505b919050565b611db3611fd9565b73ffffffffffffffffffffffffffffffffffffffff16611dd1611136565b73ffffffffffffffffffffffffffffffffffffffff1614611e27576040517f08c379a0000000000000000000000000000000000000000000000000000000008152600401611e1e906146c0565b60405180910390fd5b565b600073ffffffffffffffffffffffffffffffffffffffff168473ffffffffffffffffffffffffffffffffffffffff1603611e98576040517f08c379a0000000000000000000000000000000000000000000000000000000008152600401611e8f90614752565b60405180910390fd5b6000611ea2611fd9565b90506000611eaf85612a15565b90506000611ebc85612a15565b9050611ecd83600089858589612a8f565b8460008088815260200190815260200160002060008973ffffffffffffffffffffffffffffffffffffffff1673ffffffffffffffffffffffffffffffffffffffff1681526020019081526020016000206000828254611f2c9190613cde565b925050819055508673ffffffffffffffffffffffffffffffffffffffff16600073ffffffffffffffffffffffffffffffffffffffff168473ffffffffffffffffffffffffffffffffffffffff167fc3d58168c5ae7397731d063d5bbf3d657854427343f4c083240f7aacaa2d0f628989604051611faa929190614772565b60405180910390a4611fc183600089858589612a97565b611fd083600089898989612a9f565b50505050505050565b600033905090565b8151835114612025576040517f08c379a000000000000000000000000000000000000000000000000000000000815260040161201c9061480d565b60405180910390fd5b600073ffffffffffffffffffffffffffffffffffffffff168473ffffffffffffffffffffffffffffffffffffffff1603612094576040517f08c379a000000000000000000000000000000000000000000000000000000000815260040161208b9061489f565b60405180910390fd5b600061209e611fd9565b90506120ae818787878787612a8f565b60005b845181101561225f5760008582815181106120cf576120ce6142f6565b5b6020026020010151905060008583815181106120ee576120ed6142f6565b5b60200260200101519050600080600084815260200190815260200160002060008b73ffffffffffffffffffffffffffffffffffffffff1673ffffffffffffffffffffffffffffffffffffffff1681526020019081526020016000205490508181101561218f576040517f08c379a000000000000000000000000000000000000000000000000000000000815260040161218690614931565b60405180910390fd5b81810360008085815260200190815260200160002060008c73ffffffffffffffffffffffffffffffffffffffff1673ffffffffffffffffffffffffffffffffffffffff168152602001908152602001600020819055508160008085815260200190815260200160002060008b73ffffffffffffffffffffffffffffffffffffffff1673ffffffffffffffffffffffffffffffffffffffff16815260200190815260200160002060008282546122449190613cde565b925050819055505050508061225890614325565b90506120b1565b508473ffffffffffffffffffffffffffffffffffffffff168673ffffffffffffffffffffffffffffffffffffffff168273ffffffffffffffffffffffffffffffffffffffff167f4a39dc06d4c0dbc64b70af90fd698a233a518aa5d07e595d983b8c0526c8f7fb87876040516122d6929190614951565b60405180910390a46122ec818787878787612a97565b6122fa818787878787612c76565b505050505050565b6000600360009054906101000a900473ffffffffffffffffffffffffffffffffffffffff16905081600360006101000a81548173ffffffffffffffffffffffffffffffffffffffff021916908373ffffffffffffffffffffffffffffffffffffffff1602179055508173ffffffffffffffffffffffffffffffffffffffff168173ffffffffffffffffffffffffffffffffffffffff167f8be0079c531659141344cd1fd0a4f28419497f9722a3daafe3b4186f6b6457e060405160405180910390a35050565b8173ffffffffffffffffffffffffffffffffffffffff168373ffffffffffffffffffffffffffffffffffffffff1603612436576040517f08c379a000000000000000000000000000000000000000000000000000000000815260040161242d906149fa565b60405180910390fd5b80600160008573ffffffffffffffffffffffffffffffffffffffff1673ffffffffffffffffffffffffffffffffffffffff16815260200190815260200160002060008473ffffffffffffffffffffffffffffffffffffffff1673ffffffffffffffffffffffffffffffffffffffff16815260200190815260200160002060006101000a81548160ff0219169083151502179055508173ffffffffffffffffffffffffffffffffffffffff168373ffffffffffffffffffffffffffffffffffffffff167f17307eab39ab6107e8899845ad3d59bd9653f200f220920489ca2b5937696c31836040516125279190613022565b60405180910390a3505050565b600073ffffffffffffffffffffffffffffffffffffffff168473ffffffffffffffffffffffffffffffffffffffff16036125a3576040517f08c379a000000000000000000000000000000000000000000000000000000000815260040161259a9061489f565b60405180910390fd5b60006125ad611fd9565b905060006125ba85612a15565b905060006125c785612a15565b90506125d7838989858589612a8f565b600080600088815260200190815260200160002060008a73ffffffffffffffffffffffffffffffffffffffff1673ffffffffffffffffffffffffffffffffffffffff1681526020019081526020016000205490508581101561266e576040517f08c379a000000000000000000000000000000000000000000000000000000000815260040161266590614931565b60405180910390fd5b85810360008089815260200190815260200160002060008b73ffffffffffffffffffffffffffffffffffffffff1673ffffffffffffffffffffffffffffffffffffffff168152602001908152602001600020819055508560008089815260200190815260200160002060008a73ffffffffffffffffffffffffffffffffffffffff1673ffffffffffffffffffffffffffffffffffffffff16815260200190815260200160002060008282546127239190613cde565b925050819055508773ffffffffffffffffffffffffffffffffffffffff168973ffffffffffffffffffffffffffffffffffffffff168573ffffffffffffffffffffffffffffffffffffffff167fc3d58168c5ae7397731d063d5bbf3d657854427343f4c083240f7aacaa2d0f628a8a6040516127a0929190614772565b60405180910390a46127b6848a8a86868a612a97565b6127c4848a8a8a8a8a612a9f565b505050505050505050565b600073ffffffffffffffffffffffffffffffffffffffff168373ffffffffffffffffffffffffffffffffffffffff160361283e576040517f08c379a000000000000000000000000000000000000000000000000000000000815260040161283590614a8c565b60405180910390fd5b6000612848611fd9565b9050600061285584612a15565b9050600061286284612a15565b905061288283876000858560405180602001604052806000815250612a8f565b600080600087815260200190815260200160002060008873ffffffffffffffffffffffffffffffffffffffff1673ffffffffffffffffffffffffffffffffffffffff16815260200190815260200160002054905084811015612919576040517f08c379a000000000000000000000000000000000000000000000000000000000815260040161291090614b1e565b60405180910390fd5b84810360008088815260200190815260200160002060008973ffffffffffffffffffffffffffffffffffffffff1673ffffffffffffffffffffffffffffffffffffffff16815260200190815260200160002081905550600073ffffffffffffffffffffffffffffffffffffffff168773ffffffffffffffffffffffffffffffffffffffff168573ffffffffffffffffffffffffffffffffffffffff167fc3d58168c5ae7397731d063d5bbf3d657854427343f4c083240f7aacaa2d0f6289896040516129e6929190614772565b60405180910390a4612a0c84886000868660405180602001604052806000815250612a97565b50505050505050565b60606000600167ffffffffffffffff811115612a3457612a3361312a565b5b604051908082528060200260200182016040528015612a625781602001602082028036833780820191505090505b5090508281600081518110612a7a57612a796142f6565b5b60200260200101818152505080915050919050565b505050505050565b505050505050565b612abe8473ffffffffffffffffffffffffffffffffffffffff16612e4d565b15612c6e578373ffffffffffffffffffffffffffffffffffffffff1663f23a6e6187878686866040518663ffffffff1660e01b8152600401612b04959493929190614b93565b6020604051808303816000875af1925050508015612b4057506040513d601f19601f82011682018060405250810190612b3d9190614c02565b60015b612be557612b4c614c3c565b806308c379a003612ba85750612b60614c5e565b80612b6b5750612baa565b806040517f08c379a0000000000000000000000000000000000000000000000000000000008152600401612b9f91906130d6565b60405180910390fd5b505b6040517f08c379a0000000000000000000000000000000000000000000000000000000008152600401612bdc90614d60565b60405180910390fd5b63f23a6e6160e01b7bffffffffffffffffffffffffffffffffffffffffffffffffffffffff1916817bffffffffffffffffffffffffffffffffffffffffffffffffffffffff191614612c6c576040517f08c379a0000000000000000000000000000000000000000000000000000000008152600401612c6390614df2565b60405180910390fd5b505b505050505050565b612c958473ffffffffffffffffffffffffffffffffffffffff16612e4d565b15612e45578373ffffffffffffffffffffffffffffffffffffffff1663bc197c8187878686866040518663ffffffff1660e01b8152600401612cdb959493929190614e12565b6020604051808303816000875af1925050508015612d1757506040513d601f19601f82011682018060405250810190612d149190614c02565b60015b612dbc57612d23614c3c565b806308c379a003612d7f5750612d37614c5e565b80612d425750612d81565b806040517f08c379a0000000000000000000000000000000000000000000000000000000008152600401612d7691906130d6565b60405180910390fd5b505b6040517f08c379a0000000000000000000000000000000000000000000000000000000008152600401612db390614d60565b60405180910390fd5b63bc197c8160e01b7bffffffffffffffffffffffffffffffffffffffffffffffffffffffff1916817bffffffffffffffffffffffffffffffffffffffffffffffffffffffff191614612e43576040517f08c379a0000000000000000000000000000000000000000000000000000000008152600401612e3a90614df2565b60405180910390fd5b505b505050505050565b6000808273ffffffffffffffffffffffffffffffffffffffff163b119050919050565b6000604051905090565b600080fd5b600080fd5b600073ffffffffffffffffffffffffffffffffffffffff82169050919050565b6000612eaf82612e84565b9050919050565b612ebf81612ea4565b8114612eca57600080fd5b50565b600081359050612edc81612eb6565b92915050565b6000819050919050565b612ef581612ee2565b8114612f0057600080fd5b50565b600081359050612f1281612eec565b92915050565b60008060408385031215612f2f57612f2e612e7a565b5b6000612f3d85828601612ecd565b9250506020612f4e85828601612f03565b9150509250929050565b612f6181612ee2565b82525050565b6000602082019050612f7c6000830184612f58565b92915050565b60007fffffffff0000000000000000000000000000000000000000000000000000000082169050919050565b612fb781612f82565b8114612fc257600080fd5b50565b600081359050612fd481612fae565b92915050565b600060208284031215612ff057612fef612e7a565b5b6000612ffe84828501612fc5565b91505092915050565b60008115159050919050565b61301c81613007565b82525050565b60006020820190506130376000830184613013565b92915050565b600081519050919050565b600082825260208201905092915050565b60005b8381101561307757808201518184015260208101905061305c565b83811115613086576000848401525b50505050565b6000601f19601f8301169050919050565b60006130a88261303d565b6130b28185613048565b93506130c2818560208601613059565b6130cb8161308c565b840191505092915050565b600060208201905081810360008301526130f0818461309d565b905092915050565b60006020828403121561310e5761310d612e7a565b5b600061311c84828501612f03565b91505092915050565b600080fd5b7f4e487b7100000000000000000000000000000000000000000000000000000000600052604160045260246000fd5b6131628261308c565b810181811067ffffffffffffffff821117156131815761318061312a565b5b80604052505050565b6000613194612e70565b90506131a08282613159565b919050565b600067ffffffffffffffff8211156131c0576131bf61312a565b5b602082029050602081019050919050565b600080fd5b60006131e96131e4846131a5565b61318a565b9050808382526020820190506020840283018581111561320c5761320b6131d1565b5b835b8181101561323557806132218882612f03565b84526020840193505060208101905061320e565b5050509392505050565b600082601f83011261325457613253613125565b5b81356132648482602086016131d6565b91505092915050565b600080fd5b600067ffffffffffffffff82111561328d5761328c61312a565b5b6132968261308c565b9050602081019050919050565b82818337600083830152505050565b60006132c56132c084613272565b61318a565b9050828152602081018484840111156132e1576132e061326d565b5b6132ec8482856132a3565b509392505050565b600082601f83011261330957613308613125565b5b81356133198482602086016132b2565b91505092915050565b600080600080600060a0868803121561333e5761333d612e7a565b5b600061334c88828901612ecd565b955050602061335d88828901612ecd565b945050604086013567ffffffffffffffff81111561337e5761337d612e7f565b5b61338a8882890161323f565b935050606086013567ffffffffffffffff8111156133ab576133aa612e7f565b5b6133b78882890161323f565b925050608086013567ffffffffffffffff8111156133d8576133d7612e7f565b5b6133e4888289016132f4565b9150509295509295909350565b600067ffffffffffffffff82111561340c5761340b61312a565b5b6134158261308c565b9050602081019050919050565b6000613435613430846133f1565b61318a565b9050828152602081018484840111156134515761345061326d565b5b61345c8482856132a3565b509392505050565b600082601f83011261347957613478613125565b5b8135613489848260208601613422565b91505092915050565b6000602082840312156134a8576134a7612e7a565b5b600082013567ffffffffffffffff8111156134c6576134c5612e7f565b5b6134d284828501613464565b91505092915050565b6134e481613007565b81146134ef57600080fd5b50565b600081359050613501816134db565b92915050565b60006020828403121561351d5761351c612e7a565b5b600061352b848285016134f2565b91505092915050565b600067ffffffffffffffff82111561354f5761354e61312a565b5b602082029050602081019050919050565b600061357361356e84613534565b61318a565b90508083825260208201905060208402830185811115613596576135956131d1565b5b835b818110156135bf57806135ab8882612ecd565b845260208401935050602081019050613598565b5050509392505050565b600082601f8301126135de576135dd613125565b5b81356135ee848260208601613560565b91505092915050565b6000806040838503121561360e5761360d612e7a565b5b600083013567ffffffffffffffff81111561362c5761362b612e7f565b5b613638858286016135c9565b925050602083013567ffffffffffffffff81111561365957613658612e7f565b5b6136658582860161323f565b9150509250929050565b600081519050919050565b600082825260208201905092915050565b6000819050602082019050919050565b6136a481612ee2565b82525050565b60006136b6838361369b565b60208301905092915050565b6000602082019050919050565b60006136da8261366f565b6136e4818561367a565b93506136ef8361368b565b8060005b8381101561372057815161370788826136aa565b9750613712836136c2565b9250506001810190506136f3565b5085935050505092915050565b6000602082019050818103600083015261374781846136cf565b905092915050565b60006020828403121561376557613764612e7a565b5b600061377384828501612ecd565b91505092915050565b6000819050919050565b60006137a161379c61379784612e84565b61377c565b612e84565b9050919050565b60006137b382613786565b9050919050565b60006137c5826137a8565b9050919050565b6137d5816137ba565b82525050565b60006020820190506137f060008301846137cc565b92915050565b6137ff81612ea4565b82525050565b600060208201905061381a60008301846137f6565b92915050565b6000806040838503121561383757613836612e7a565b5b600061384585828601612ecd565b9250506020613856858286016134f2565b9150509250929050565b6000806040838503121561387757613876612e7a565b5b600061388585828601612ecd565b925050602061389685828601612ecd565b9150509250929050565b600080604083850312156138b7576138b6612e7a565b5b600083013567ffffffffffffffff8111156138d5576138d4612e7f565b5b6138e1858286016135c9565b92505060206138f2858286016134f2565b9150509250929050565b600080600080600060a0868803121561391857613917612e7a565b5b600061392688828901612ecd565b955050602061393788828901612ecd565b945050604061394888828901612f03565b935050606061395988828901612f03565b925050608086013567ffffffffffffffff81111561397a57613979612e7f565b5b613986888289016132f4565b9150509295509295909350565b7f455243313135353a2061646472657373207a65726f206973206e6f742061207660008201527f616c6964206f776e657200000000000000000000000000000000000000000000602082015250565b60006139ef602a83613048565b91506139fa82613993565b604082019050919050565b60006020820190508181036000830152613a1e816139e2565b9050919050565b7f4e487b7100000000000000000000000000000000000000000000000000000000600052602260045260246000fd5b60006002820490506001821680613a6c57607f821691505b602082108103613a7f57613a7e613a25565b5b50919050565b7f5552492072657175657374656420666f7220696e76616c696400000000000000600082015250565b6000613abb601983613048565b9150613ac682613a85565b602082019050919050565b60006020820190508181036000830152613aea81613aae565b9050919050565b600081905092915050565b60008190508160005260206000209050919050565b60008154613b1e81613a54565b613b288186613af1565b94506001821660008114613b435760018114613b5857613b8b565b60ff1983168652811515820286019350613b8b565b613b6185613afc565b60005b83811015613b8357815481890152600182019150602081019050613b64565b838801955050505b50505092915050565b6000613b9f8261303d565b613ba98185613af1565b9350613bb9818560208601613059565b80840191505092915050565b6000613bd18285613b11565b9150613bdd8284613b94565b91508190509392505050565b7f4e487b7100000000000000000000000000000000000000000000000000000000600052601160045260246000fd5b6000613c2382612ee2565b9150613c2e83612ee2565b9250817fffffffffffffffffffffffffffffffffffffffffffffffffffffffffffffffff0483118215151615613c6757613c66613be9565b5b828202905092915050565b7f50756e6269632073616c65206e6f742073746172742079657400000000000000600082015250565b6000613ca8601983613048565b9150613cb382613c72565b602082019050919050565b60006020820190508181036000830152613cd781613c9b565b9050919050565b6000613ce982612ee2565b9150613cf483612ee2565b9250827fffffffffffffffffffffffffffffffffffffffffffffffffffffffffffffffff03821115613d2957613d28613be9565b5b828201905092915050565b7f4e6f7420656e6f75676874204e46540000000000000000000000000000000000600082015250565b6000613d6a600f83613048565b9150613d7582613d34565b602082019050919050565b60006020820190508181036000830152613d9981613d5d565b9050919050565b6000604082019050613db560008301856137f6565b613dc260208301846137f6565b9392505050565b600081519050613dd881612eec565b92915050565b600060208284031215613df457613df3612e7a565b5b6000613e0284828501613dc9565b91505092915050565b7f416c6c6f77616e636520696e73756666696369656e7400000000000000000000600082015250565b6000613e41601683613048565b9150613e4c82613e0b565b602082019050919050565b60006020820190508181036000830152613e7081613e34565b9050919050565b7f4e6f7420656e6f75676874205553444300000000000000000000000000000000600082015250565b6000613ead601083613048565b9150613eb882613e77565b602082019050919050565b60006020820190508181036000830152613edc81613ea0565b9050919050565b6000606082019050613ef860008301866137f6565b613f0560208301856137f6565b613f126040830184612f58565b949350505050565b600081519050613f29816134db565b92915050565b600060208284031215613f4557613f44612e7a565b5b6000613f5384828501613f1a565b91505092915050565b7f455243313135353a2063616c6c6572206973206e6f7420746f6b656e206f776e60008201527f6572206e6f7220617070726f7665640000000000000000000000000000000000602082015250565b6000613fb8602f83613048565b9150613fc382613f5c565b604082019050919050565b60006020820190508181036000830152613fe781613fab565b9050919050565b60006020601f8301049050919050565b600082821b905092915050565b60006008830261403b7fffffffffffffffffffffffffffffffffffffffffffffffffffffffffffffffff82613ffe565b6140458683613ffe565b95508019841693508086168417925050509392505050565b600061407861407361406e84612ee2565b61377c565b612ee2565b9050919050565b6000819050919050565b6140928361405d565b6140a661409e8261407f565b84845461400b565b825550505050565b600090565b6140bb6140ae565b6140c6818484614089565b505050565b5b818110156140ea576140df6000826140b3565b6001810190506140cc565b5050565b601f82111561412f5761410081613afc565b61410984613fee565b81016020851015614118578190505b61412c61412485613fee565b8301826140cb565b50505b505050565b600082821c905092915050565b600061415260001984600802614134565b1980831691505092915050565b600061416b8383614141565b9150826002028217905092915050565b6141848261303d565b67ffffffffffffffff81111561419d5761419c61312a565b5b6141a78254613a54565b6141b28282856140ee565b600060209050601f8311600181146141e557600084156141d3578287015190505b6141dd858261415f565b865550614245565b601f1984166141f386613afc565b60005b8281101561421b578489015182556001820191506020850194506020810190506141f6565b868310156142385784890151614234601f891682614141565b8355505b6001600288020188555050505b505050505050565b60006142598284613b11565b915081905092915050565b7f455243313135353a206163636f756e747320616e6420696473206c656e67746860008201527f206d69736d617463680000000000000000000000000000000000000000000000602082015250565b60006142c0602983613048565b91506142cb82614264565b604082019050919050565b600060208201905081810360008301526142ef816142b3565b9050919050565b7f4e487b7100000000000000000000000000000000000000000000000000000000600052603260045260246000fd5b600061433082612ee2565b91507fffffffffffffffffffffffffffffffffffffffffffffffffffffffffffffffff820361436257614361613be9565b5b600182019050919050565b7f596f7520617265206e6f74206f6e20746865207768697465206c697374000000600082015250565b60006143a3601d83613048565b91506143ae8261436d565b602082019050919050565b600060208201905081810360008301526143d281614396565b9050919050565b7f496e70757420616d6f756e742063616e27742062652030200000000000000000600082015250565b600061440f601883613048565b915061441a826143d9565b602082019050919050565b6000602082019050818103600083015261443e81614402565b9050919050565b7f4f776e61626c653a206e6577206f776e657220697320746865207a65726f206160008201527f6464726573730000000000000000000000000000000000000000000000000000602082015250565b60006144a1602683613048565b91506144ac82614445565b604082019050919050565b600060208201905081810360008301526144d081614494565b9050919050565b7f4e6f7420746865207374616b696e672061646472657373000000000000000000600082015250565b600061450d601783613048565b9150614518826144d7565b602082019050919050565b6000602082019050818103600083015261453c81614500565b9050919050565b7f496e76616c6964206275726e6572206164647265737300000000000000000000600082015250565b6000614579601683613048565b915061458482614543565b602082019050919050565b600060208201905081810360008301526145a88161456c565b9050919050565b7f4e487b7100000000000000000000000000000000000000000000000000000000600052601260045260246000fd5b60006145e982612ee2565b91506145f483612ee2565b925082614604576146036145af565b5b828204905092915050565b600061461a82612ee2565b915061462583612ee2565b92508282101561463857614637613be9565b5b828203905092915050565b600061464e82612ee2565b915061465983612ee2565b925082614669576146686145af565b5b828206905092915050565b7f4f776e61626c653a2063616c6c6572206973206e6f7420746865206f776e6572600082015250565b60006146aa602083613048565b91506146b582614674565b602082019050919050565b600060208201905081810360008301526146d98161469d565b9050919050565b7f455243313135353a206d696e7420746f20746865207a65726f2061646472657360008201527f7300000000000000000000000000000000000000000000000000000000000000602082015250565b600061473c602183613048565b9150614747826146e0565b604082019050919050565b6000602082019050818103600083015261476b8161472f565b9050919050565b60006040820190506147876000830185612f58565b6147946020830184612f58565b9392505050565b7f455243313135353a2069647320616e6420616d6f756e7473206c656e6774682060008201527f6d69736d61746368000000000000000000000000000000000000000000000000602082015250565b60006147f7602883613048565b91506148028261479b565b604082019050919050565b60006020820190508181036000830152614826816147ea565b9050919050565b7f455243313135353a207472616e7366657220746f20746865207a65726f20616460008201527f6472657373000000000000000000000000000000000000000000000000000000602082015250565b6000614889602583613048565b91506148948261482d565b604082019050919050565b600060208201905081810360008301526148b88161487c565b9050919050565b7f455243313135353a20696e73756666696369656e742062616c616e636520666f60008201527f72207472616e7366657200000000000000000000000000000000000000000000602082015250565b600061491b602a83613048565b9150614926826148bf565b604082019050919050565b6000602082019050818103600083015261494a8161490e565b9050919050565b6000604082019050818103600083015261496b81856136cf565b9050818103602083015261497f81846136cf565b90509392505050565b7f455243313135353a2073657474696e6720617070726f76616c2073746174757360008201527f20666f722073656c660000000000000000000000000000000000000000000000602082015250565b60006149e4602983613048565b91506149ef82614988565b604082019050919050565b60006020820190508181036000830152614a13816149d7565b9050919050565b7f455243313135353a206275726e2066726f6d20746865207a65726f206164647260008201527f6573730000000000000000000000000000000000000000000000000000000000602082015250565b6000614a76602383613048565b9150614a8182614a1a565b604082019050919050565b60006020820190508181036000830152614aa581614a69565b9050919050565b7f455243313135353a206275726e20616d6f756e7420657863656564732062616c60008201527f616e636500000000000000000000000000000000000000000000000000000000602082015250565b6000614b08602483613048565b9150614b1382614aac565b604082019050919050565b60006020820190508181036000830152614b3781614afb565b9050919050565b600081519050919050565b600082825260208201905092915050565b6000614b6582614b3e565b614b6f8185614b49565b9350614b7f818560208601613059565b614b888161308c565b840191505092915050565b600060a082019050614ba860008301886137f6565b614bb560208301876137f6565b614bc26040830186612f58565b614bcf6060830185612f58565b8181036080830152614be18184614b5a565b90509695505050505050565b600081519050614bfc81612fae565b92915050565b600060208284031215614c1857614c17612e7a565b5b6000614c2684828501614bed565b91505092915050565b60008160e01c9050919050565b600060033d1115614c5b5760046000803e614c58600051614c2f565b90505b90565b600060443d10614ceb57614c70612e70565b60043d036004823e80513d602482011167ffffffffffffffff82111715614c98575050614ceb565b808201805167ffffffffffffffff811115614cb65750505050614ceb565b80602083010160043d038501811115614cd3575050505050614ceb565b614ce282602001850186613159565b82955050505050505b90565b7f455243313135353a207472616e7366657220746f206e6f6e204552433131353560008201527f526563656976657220696d706c656d656e746572000000000000000000000000602082015250565b6000614d4a603483613048565b9150614d5582614cee565b604082019050919050565b60006020820190508181036000830152614d7981614d3d565b9050919050565b7f455243313135353a204552433131353552656365697665722072656a6563746560008201527f6420746f6b656e73000000000000000000000000000000000000000000000000602082015250565b6000614ddc602883613048565b9150614de782614d80565b604082019050919050565b60006020820190508181036000830152614e0b81614dcf565b9050919050565b600060a082019050614e2760008301886137f6565b614e3460208301876137f6565b8181036040830152614e4681866136cf565b90508181036060830152614e5a81856136cf565b90508181036080830152614e6e8184614b5a565b9050969550505050505056fea26469706673582212205287cbd265cedddd002cdddf7a25cfc33b4b2b7e0a116f31cfa66a9a2c208c6a64736f6c634300080f0033",
  "linkReferences": {},
  "deployedLinkReferences": {}
}