{
  "_format": "hh-sol-artifact-1",
  "contractName": "testUSDC",
  "sourceName": "contracts/testUSDC.sol",
  "abi": [
    {
      "inputs": [],
      "stateMutability": "nonpayable",
      "type": "constructor"
    },
    {
      "anonymous": false,
      "inputs": [
        {
          "indexed": true,
          "internalType": "address",
          "name": "owner",
          "type": "address"
        },
        {
          "indexed": true,
          "internalType": "address",
          "name": "spender",
          "type": "address"
        },
        {
          "indexed": false,
          "internalType": "uint256",
          "name": "value",
          "type": "uint256"
        }
      ],
      "name": "Approval",
      "type": "event"
    },
    {
      "anonymous": false,
      "inputs": [
        {
          "indexed": true,
          "internalType": "address",
          "name": "from",
          "type": "address"
        },
        {
          "indexed": true,
          "internalType": "address",
          "name": "to",
          "type": "address"
        },
        {
          "indexed": false,
          "internalType": "uint256",
          "name": "value",
          "type": "uint256"
        }
      ],
      "name": "Transfer",
      "type": "event"
    },
    {
      "inputs": [
        {
          "internalType": "uint256",
          "name": "num",
          "type": "uint256"
        }
      ],
      "name": "WithDraw",
      "outputs": [],
      "stateMutability": "nonpayable",
      "type": "function"
    },
    {
      "inputs": [
        {
          "internalType": "address",
          "name": "Owner",
          "type": "address"
        },
        {
          "internalType": "address",
          "name": "spender",
          "type": "address"
        }
      ],
      "name": "allowance",
      "outputs": [
        {
          "internalType": "uint256",
          "name": "",
          "type": "uint256"
        }
      ],
      "stateMutability": "view",
      "type": "function"
    },
    {
      "inputs": [
        {
          "internalType": "address",
          "name": "spender",
          "type": "address"
        },
        {
          "internalType": "uint256",
          "name": "amount",
          "type": "uint256"
        }
      ],
      "name": "approve",
      "outputs": [
        {
          "internalType": "bool",
          "name": "",
          "type": "bool"
        }
      ],
      "stateMutability": "nonpayable",
      "type": "function"
    },
    {
      "inputs": [
        {
          "internalType": "address",
          "name": "account",
          "type": "address"
        }
      ],
      "name": "balanceOf",
      "outputs": [
        {
          "internalType": "uint256",
          "name": "",
          "type": "uint256"
        }
      ],
      "stateMutability": "view",
      "type": "function"
    },
    {
      "inputs": [],
      "name": "claimToken",
      "outputs": [],
      "stateMutability": "nonpayable",
      "type": "function"
    },
    {
      "inputs": [],
      "name": "decimals",
      "outputs": [
        {
          "internalType": "uint256",
          "name": "",
          "type": "uint256"
        }
      ],
      "stateMutability": "pure",
      "type": "function"
    },
    {
      "inputs": [
        {
          "internalType": "address",
          "name": "spender",
          "type": "address"
        },
        {
          "internalType": "uint256",
          "name": "subtractedValue",
          "type": "uint256"
        }
      ],
      "name": "decreaseAllowance",
      "outputs": [
        {
          "internalType": "bool",
          "name": "",
          "type": "bool"
        }
      ],
      "stateMutability": "nonpayable",
      "type": "function"
    },
    {
      "inputs": [],
      "name": "getOwner",
      "outputs": [
        {
          "internalType": "address",
          "name": "",
          "type": "address"
        }
      ],
      "stateMutability": "view",
      "type": "function"
    },
    {
      "inputs": [],
      "name": "name",
      "outputs": [
        {
          "internalType": "string",
          "name": "",
          "type": "string"
        }
      ],
      "stateMutability": "pure",
      "type": "function"
    },
    {
      "inputs": [],
      "name": "owner",
      "outputs": [
        {
          "internalType": "address",
          "name": "",
          "type": "address"
        }
      ],
      "stateMutability": "view",
      "type": "function"
    },
    {
      "inputs": [
        {
          "internalType": "address[]",
          "name": "input",
          "type": "address[]"
        },
        {
          "internalType": "uint256",
          "name": "amount",
          "type": "uint256"
        }
      ],
      "name": "sendToMutiUser",
      "outputs": [],
      "stateMutability": "nonpayable",
      "type": "function"
    },
    {
      "inputs": [],
      "name": "symbol",
      "outputs": [
        {
          "internalType": "string",
          "name": "",
          "type": "string"
        }
      ],
      "stateMutability": "pure",
      "type": "function"
    },
    {
      "inputs": [],
      "name": "totalSupply",
      "outputs": [
        {
          "internalType": "uint256",
          "name": "",
          "type": "uint256"
        }
      ],
      "stateMutability": "pure",
      "type": "function"
    },
    {
      "inputs": [
        {
          "internalType": "address",
          "name": "recipient",
          "type": "address"
        },
        {
          "internalType": "uint256",
          "name": "amount",
          "type": "uint256"
        }
      ],
      "name": "transfer",
      "outputs": [
        {
          "internalType": "bool",
          "name": "",
          "type": "bool"
        }
      ],
      "stateMutability": "nonpayable",
      "type": "function"
    },
    {
      "inputs": [
        {
          "internalType": "address",
          "name": "sender",
          "type": "address"
        },
        {
          "internalType": "address",
          "name": "recipient",
          "type": "address"
        },
        {
          "internalType": "uint256",
          "name": "amount",
          "type": "uint256"
        }
      ],
      "name": "transferFrom",
      "outputs": [
        {
          "internalType": "bool",
          "name": "",
          "type": "bool"
        }
      ],
      "stateMutability": "nonpayable",
      "type": "function"
    }
  ],
  "bytecode": "0x608060405234801561001057600080fd5b5066038d7ea4c680006000803073ffffffffffffffffffffffffffffffffffffffff1673ffffffffffffffffffffffffffffffffffffffff1681526020019081526020016000208190555033600360006101000a81548173ffffffffffffffffffffffffffffffffffffffff021916908373ffffffffffffffffffffffffffffffffffffffff1602179055503073ffffffffffffffffffffffffffffffffffffffff16600073ffffffffffffffffffffffffffffffffffffffff167fddf252ad1be2c89b69c2b068fc378daa952ba7f163c4a11628f55a4df523b3ef66038d7ea4c680006040516101019190610127565b60405180910390a3610142565b6000819050919050565b6101218161010e565b82525050565b600060208201905061013c6000830184610118565b92915050565b6117d7806101516000396000f3fe608060405234801561001057600080fd5b50600436106100f55760003560e01c8063893d20e811610097578063a9059cbb11610066578063a9059cbb14610278578063cbe159bb146102a8578063d4f5cdad146102c4578063dd62ed3e146102e0576100f5565b8063893d20e8146101ee5780638da5cb5b1461020c57806395d89b411461022a578063a457c2d714610248576100f5565b806323b872dd116100d357806323b872dd14610166578063313ce567146101965780634451d89f146101b457806370a08231146101be576100f5565b806306fdde03146100fa578063095ea7b31461011857806318160ddd14610148575b600080fd5b610102610310565b60405161010f9190610d5b565b60405180910390f35b610132600480360381019061012d9190610e25565b61034d565b60405161013f9190610e80565b60405180910390f35b610150610364565b60405161015d9190610eaa565b60405180910390f35b610180600480360381019061017b9190610ec5565b610373565b60405161018d9190610e80565b60405180910390f35b61019e61045d565b6040516101ab9190610eaa565b60405180910390f35b6101bc610466565b005b6101d860048036038101906101d39190610f18565b6104dc565b6040516101e59190610eaa565b60405180910390f35b6101f6610524565b6040516102039190610f54565b60405180910390f35b61021461054e565b6040516102219190610f54565b60405180910390f35b610232610574565b60405161023f9190610d5b565b60405180910390f35b610262600480360381019061025d9190610e25565b6105b1565b60405161026f9190610e80565b60405180910390f35b610292600480360381019061028d9190610e25565b61068e565b60405161029f9190610e80565b60405180910390f35b6102c260048036038101906102bd9190610f6f565b6106a5565b005b6102de60048036038101906102d991906110e4565b61072f565b005b6102fa60048036038101906102f59190611140565b610805565b6040516103079190610eaa565b60405180910390f35b60606040518060400160405280600981526020017f746573745f555344430000000000000000000000000000000000000000000000815250905090565b600061035a33848461088c565b6001905092915050565b600066038d7ea4c68000905090565b6000610380848484610a57565b6000600160008673ffffffffffffffffffffffffffffffffffffffff1673ffffffffffffffffffffffffffffffffffffffff16815260200190815260200160002060003373ffffffffffffffffffffffffffffffffffffffff1673ffffffffffffffffffffffffffffffffffffffff16815260200190815260200160002054905082811015610444576040517f08c379a000000000000000000000000000000000000000000000000000000000815260040161043b906111f2565b60405180910390fd5b610451853385840361088c565b60019150509392505050565b60006006905090565b610473303361c350610a57565b3373ffffffffffffffffffffffffffffffffffffffff163073ffffffffffffffffffffffffffffffffffffffff167fddf252ad1be2c89b69c2b068fc378daa952ba7f163c4a11628f55a4df523b3ef61c3506040516104d29190611257565b60405180910390a3565b60008060008373ffffffffffffffffffffffffffffffffffffffff1673ffffffffffffffffffffffffffffffffffffffff168152602001908152602001600020549050919050565b6000600360009054906101000a900473ffffffffffffffffffffffffffffffffffffffff16905090565b600360009054906101000a900473ffffffffffffffffffffffffffffffffffffffff1681565b60606040518060400160405280600881526020017f7465737455534443000000000000000000000000000000000000000000000000815250905090565b600080600160003373ffffffffffffffffffffffffffffffffffffffff1673ffffffffffffffffffffffffffffffffffffffff16815260200190815260200160002060008573ffffffffffffffffffffffffffffffffffffffff1673ffffffffffffffffffffffffffffffffffffffff16815260200190815260200160002054905082811015610676576040517f08c379a000000000000000000000000000000000000000000000000000000000815260040161066d906112e4565b60405180910390fd5b610683338585840361088c565b600191505092915050565b600061069b338484610a57565b6001905092915050565b600360009054906101000a900473ffffffffffffffffffffffffffffffffffffffff1673ffffffffffffffffffffffffffffffffffffffff163373ffffffffffffffffffffffffffffffffffffffff16146106ff57600080fd5b61072c30600360009054906101000a900473ffffffffffffffffffffffffffffffffffffffff1683610a57565b50565b80825161073c9190611333565b6000803373ffffffffffffffffffffffffffffffffffffffff1673ffffffffffffffffffffffffffffffffffffffff1681526020019081526020016000205410156107bc576040517f08c379a00000000000000000000000000000000000000000000000000000000081526004016107b3906113d9565b60405180910390fd5b60005b8251811015610800576107ed338483815181106107df576107de6113f9565b5b602002602001015184610a57565b80806107f890611428565b9150506107bf565b505050565b6000600160008473ffffffffffffffffffffffffffffffffffffffff1673ffffffffffffffffffffffffffffffffffffffff16815260200190815260200160002060008373ffffffffffffffffffffffffffffffffffffffff1673ffffffffffffffffffffffffffffffffffffffff16815260200190815260200160002054905092915050565b600073ffffffffffffffffffffffffffffffffffffffff168373ffffffffffffffffffffffffffffffffffffffff1614156108fc576040517f08c379a00000000000000000000000000000000000000000000000000000000081526004016108f3906114e3565b60405180910390fd5b600073ffffffffffffffffffffffffffffffffffffffff168273ffffffffffffffffffffffffffffffffffffffff16141561096c576040517f08c379a000000000000000000000000000000000000000000000000000000000815260040161096390611575565b60405180910390fd5b80600160008573ffffffffffffffffffffffffffffffffffffffff1673ffffffffffffffffffffffffffffffffffffffff16815260200190815260200160002060008473ffffffffffffffffffffffffffffffffffffffff1673ffffffffffffffffffffffffffffffffffffffff168152602001908152602001600020819055508173ffffffffffffffffffffffffffffffffffffffff168373ffffffffffffffffffffffffffffffffffffffff167f8c5be1e5ebec7d5bd14f71427d1e84f3dd0314c0f7b2291e5b200ac8c7c3b92583604051610a4a9190610eaa565b60405180910390a3505050565b600073ffffffffffffffffffffffffffffffffffffffff168373ffffffffffffffffffffffffffffffffffffffff161415610ac7576040517f08c379a0000000000000000000000000000000000000000000000000000000008152600401610abe90611607565b60405180910390fd5b600073ffffffffffffffffffffffffffffffffffffffff168273ffffffffffffffffffffffffffffffffffffffff161415610b37576040517f08c379a0000000000000000000000000000000000000000000000000000000008152600401610b2e90611699565b60405180910390fd5b60008060008573ffffffffffffffffffffffffffffffffffffffff1673ffffffffffffffffffffffffffffffffffffffff16815260200190815260200160002054905081811015610bbd576040517f08c379a0000000000000000000000000000000000000000000000000000000008152600401610bb49061172b565b60405180910390fd5b8181036000808673ffffffffffffffffffffffffffffffffffffffff1673ffffffffffffffffffffffffffffffffffffffff16815260200190815260200160002081905550816000808573ffffffffffffffffffffffffffffffffffffffff1673ffffffffffffffffffffffffffffffffffffffff1681526020019081526020016000206000828254610c50919061174b565b925050819055508273ffffffffffffffffffffffffffffffffffffffff168473ffffffffffffffffffffffffffffffffffffffff167fddf252ad1be2c89b69c2b068fc378daa952ba7f163c4a11628f55a4df523b3ef84604051610cb49190610eaa565b60405180910390a350505050565b600081519050919050565b600082825260208201905092915050565b60005b83811015610cfc578082015181840152602081019050610ce1565b83811115610d0b576000848401525b50505050565b6000601f19601f8301169050919050565b6000610d2d82610cc2565b610d378185610ccd565b9350610d47818560208601610cde565b610d5081610d11565b840191505092915050565b60006020820190508181036000830152610d758184610d22565b905092915050565b6000604051905090565b600080fd5b600080fd5b600073ffffffffffffffffffffffffffffffffffffffff82169050919050565b6000610dbc82610d91565b9050919050565b610dcc81610db1565b8114610dd757600080fd5b50565b600081359050610de981610dc3565b92915050565b6000819050919050565b610e0281610def565b8114610e0d57600080fd5b50565b600081359050610e1f81610df9565b92915050565b60008060408385031215610e3c57610e3b610d87565b5b6000610e4a85828601610dda565b9250506020610e5b85828601610e10565b9150509250929050565b60008115159050919050565b610e7a81610e65565b82525050565b6000602082019050610e956000830184610e71565b92915050565b610ea481610def565b82525050565b6000602082019050610ebf6000830184610e9b565b92915050565b600080600060608486031215610ede57610edd610d87565b5b6000610eec86828701610dda565b9350506020610efd86828701610dda565b9250506040610f0e86828701610e10565b9150509250925092565b600060208284031215610f2e57610f2d610d87565b5b6000610f3c84828501610dda565b91505092915050565b610f4e81610db1565b82525050565b6000602082019050610f696000830184610f45565b92915050565b600060208284031215610f8557610f84610d87565b5b6000610f9384828501610e10565b91505092915050565b600080fd5b7f4e487b7100000000000000000000000000000000000000000000000000000000600052604160045260246000fd5b610fd982610d11565b810181811067ffffffffffffffff82111715610ff857610ff7610fa1565b5b80604052505050565b600061100b610d7d565b90506110178282610fd0565b919050565b600067ffffffffffffffff82111561103757611036610fa1565b5b602082029050602081019050919050565b600080fd5b600061106061105b8461101c565b611001565b9050808382526020820190506020840283018581111561108357611082611048565b5b835b818110156110ac57806110988882610dda565b845260208401935050602081019050611085565b5050509392505050565b600082601f8301126110cb576110ca610f9c565b5b81356110db84826020860161104d565b91505092915050565b600080604083850312156110fb576110fa610d87565b5b600083013567ffffffffffffffff81111561111957611118610d8c565b5b611125858286016110b6565b925050602061113685828601610e10565b9150509250929050565b6000806040838503121561115757611156610d87565b5b600061116585828601610dda565b925050602061117685828601610dda565b9150509250929050565b7f45524332303a207472616e7366657220616d6f756e742065786365656473206160008201527f6c6c6f77616e6365000000000000000000000000000000000000000000000000602082015250565b60006111dc602883610ccd565b91506111e782611180565b604082019050919050565b6000602082019050818103600083015261120b816111cf565b9050919050565b6000819050919050565b6000819050919050565b600061124161123c61123784611212565b61121c565b610def565b9050919050565b61125181611226565b82525050565b600060208201905061126c6000830184611248565b92915050565b7f45524332303a2064656372656173656420616c6c6f77616e63652062656c6f7760008201527f207a65726f000000000000000000000000000000000000000000000000000000602082015250565b60006112ce602583610ccd565b91506112d982611272565b604082019050919050565b600060208201905081810360008301526112fd816112c1565b9050919050565b7f4e487b7100000000000000000000000000000000000000000000000000000000600052601160045260246000fd5b600061133e82610def565b915061134983610def565b9250817fffffffffffffffffffffffffffffffffffffffffffffffffffffffffffffffff048311821515161561138257611381611304565b5b828202905092915050565b7f4e6f7420656e6f75676874205357442100000000000000000000000000000000600082015250565b60006113c3601083610ccd565b91506113ce8261138d565b602082019050919050565b600060208201905081810360008301526113f2816113b6565b9050919050565b7f4e487b7100000000000000000000000000000000000000000000000000000000600052603260045260246000fd5b600061143382610def565b91507fffffffffffffffffffffffffffffffffffffffffffffffffffffffffffffffff82141561146657611465611304565b5b600182019050919050565b7f45524332303a20617070726f76652066726f6d20746865207a65726f2061646460008201527f7265737300000000000000000000000000000000000000000000000000000000602082015250565b60006114cd602483610ccd565b91506114d882611471565b604082019050919050565b600060208201905081810360008301526114fc816114c0565b9050919050565b7f45524332303a20617070726f766520746f20746865207a65726f20616464726560008201527f7373000000000000000000000000000000000000000000000000000000000000602082015250565b600061155f602283610ccd565b915061156a82611503565b604082019050919050565b6000602082019050818103600083015261158e81611552565b9050919050565b7f45524332303a207472616e736665722066726f6d20746865207a65726f20616460008201527f6472657373000000000000000000000000000000000000000000000000000000602082015250565b60006115f1602583610ccd565b91506115fc82611595565b604082019050919050565b60006020820190508181036000830152611620816115e4565b9050919050565b7f45524332303a207472616e7366657220746f20746865207a65726f206164647260008201527f6573730000000000000000000000000000000000000000000000000000000000602082015250565b6000611683602383610ccd565b915061168e82611627565b604082019050919050565b600060208201905081810360008301526116b281611676565b9050919050565b7f45524332303a207472616e7366657220616d6f756e742065786365656473206260008201527f616c616e63650000000000000000000000000000000000000000000000000000602082015250565b6000611715602683610ccd565b9150611720826116b9565b604082019050919050565b6000602082019050818103600083015261174481611708565b9050919050565b600061175682610def565b915061176183610def565b9250827fffffffffffffffffffffffffffffffffffffffffffffffffffffffffffffffff0382111561179657611795611304565b5b82820190509291505056fea2646970667358221220044ab5755e03e534b8deefb3ab85cf24afe92f67b06a5d1fc67471305642f2da64736f6c634300080c0033",
  "linkReferences": {},
  "deployedLinkReferences": {}
}